:100000000C9474010C9491010C9491010C94910145
:100010000C9491010C9491010C9491010C94910118
:100020000C9491010C9491010C9491010C94910108
:100030000C9491010C9491010C9491010C949101F8
:100040000C9491010C9491010C9491010C949101E8
:100050000C9491010C94AD060C9491010C949101B7
:100060000C9491010C949101808183848687898A04
:100070008C8E8F9192949597989A9B9D9EA0A2A307
:10008000A5A6A7A9AAACADAFB0B2B3B5B6B7B9BA79
:10009000BCBDBEC0C1C2C4C5C6C8C9CACBCDCECF07
:1000A000D0D2D3D4D5D6D7D9DADBDCDDDEDFE0E1C0
:1000B000E2E3E4E5E6E7E8E9EAEAEBECEDEEEEEFB1
:1000C000F0F1F1F2F3F3F4F5F5F6F6F7F8F8F9F9E3
:1000D000FAFAFAFBFBFCFCFCFDFDFDFDFEFEFEFE5C
:1000E000FEFFFFFFFFFFFFFF0000891112239B327D
:1000F0002446AD573665BF74488CC19D5AAFD3BEF8
:100100006CCAE5DB7EE9F7F88110080193331A2207
:10011000A5562C47B7753E64C99C408DDBBF52AED7
:10012000EDDA64CBFFF976E802218B3010029913E7
:100130002667AF763444BD554AADC3BC588ED19FB7
:100140006EEBE7FA7CC8F5D983310A2091121803C7
:10015000A7772E66B5543C45CBBD42ACD99E508F97
:10016000EFFB66EAFDD874C904428D5316619F7097
:100170002004A9153227BB364CCEC5DF5EEDD7FC77
:100180006888E1997AABF3BA85520C4397711E6087
:10019000A1142805B3373A26CDDE44CFDFFD56EC57
:1001A000E9986089FBBB72AA06638F7214409D5167
:1001B0002225AB343006B9174EEFC7FE5CCCD5DD37
:1001C0006AA9E3B8788AF19B87730E6295501C4147
:1001D000A3352A24B1163807CFFF46EEDDDC54CD17
:1001E000EBB962A8F99A708B088481951AA793B627
:1001F0002CC2A5D33EE1B7F04008C919522BDB3A17
:10020000644EED5F766DFF7C899400859BB712A6E6
:10021000ADD224C3BFF136E0C1184809D33B5A2AF6
:10022000E55E6C4FF77D7E6C0AA583B418869197C6
:100230002EE3A7F23CC0B5D14229CB38500AD91BD6
:10024000666FEF7E744CFD5D8BB502A499961087A6
:10025000AFF326E2BDD034C1C3394A28D11A580BB6
:10026000E77F6E6EF55C7C4D0CC685D71EE597F476
:100270002880A1913AA3B3B2444ACD5B5669DF7896
:10028000600CE91D722FFB3E8DD604C79FF516E466
:10029000A9902081BBB332A2C55A4C4BD7795E6876
:1002A000E11C680DF33F7A2E0EE787F61CC495D546
:1002B0002AA1A3B03882B193466BCF7A5448DD5956
:1002C000622DEB3C700EF91F8FF706E69DD414C526
:1002D000ABB122A0B9923083C77B4E6AD5585C4936
:1002E000E33D6A2CF11E780F11241FBECFEFD8E03A
:1002F000DEBFCDBF11E0A0E0B1E0E6E3F6E102C071
:1003000005900D92A231B107D9F728E0A2E1B1E042
:1003100001C01D92AC33B207E1F70E94D2090C94E0
:10032000190B0C9400000C945E0878948CE294E015
:100330000E94080343E951E06CE274E088E095E034
:100340000E9445078AEF94E00E94C301E6E3F8E0CB
:100350008AEF94E09383828391838083AC016CE283
:1003600074E088E095E00C9451089091C00095FFEE
:10037000FCCF8093C60008958091C00087FFFCCF1A
:100380008091C6000895CF93DF93CDB7DEB72E9747
:100390000FB6F894DEBF0FBECDBFDC018EE0FD01CD
:1003A000982F11929A95E9F71092C50093E39093D4
:1003B000C400E0ECF0E090819D7F908396E0909304
:1003C000C20098E19093C1009E012F5F3F4FF90159
:1003D00011928A95E9F783E08C8385EB91E09A8707
:1003E00089878CEB91E09C878B879EE0F9010190D7
:1003F0000D929A95E1F72E960FB6F894DEBF0FBED8
:10040000CDBFDF91CF910895811106C08091C000CA
:10041000881F8827881F089580E008958091C00074
:1004200087FF03C08091C60008958FEF08950F9352
:100430001F93CF93DF93182FC0912C08D0912D08D4
:10044000FE01E959FF4F8081811124C080E490E0D2
:100450009E8F8D8F1C8E1B8E1A8E01E00083299A31
:100460002091090130910A0140910B0150910C013A
:10047000A0EBB4E00E94150A6056704F8F4F9F4F5B
:1004800020E43FE140E050E00E94E4093B8B2A8BEE
:10049000009313010FB7F8942091050130910601E4
:1004A0004091070150910801A0EBB4E00E94150AA9
:1004B0006056704F8F4F9F4F20E43FE140E050E087
:1004C0000E94E4093D8B2C8B0FBFE0912C08F0912A
:1004D0002D084FB7F89423A134A1878D90A1281738
:1004E000390739F425A136A181A192A1281739072E
:1004F00079F065A176A123A134A12150310991E0C1
:1005000080E06217730709F090E0292F382F02C0AE
:1005100021E030E04FBF232BC1F6E0912C08F09191
:100520002D082FB7F894A5A1B6A11C9345A156A1FB
:1005300081A192A14817590719F4878D90A103C092
:1005400085A196A1019696A385A32FBFDF91CF9198
:100550001F910F910895E0912C08F0912D084FB74D
:10056000F894EB58FF4F24813581868197814FBFE6
:1005700028173907E9F0E0912C08F0912D089FB772
:10058000F894EB58FF4FA481B58122813381A217E3
:10059000B30719F42081318105C0A481B5819D0183
:1005A0002F5F3F4F358324838C919FBF90E0089548
:1005B0008FEF9FEF0895109212010895109212018B
:1005C0001092800089E18093810080E493E0909311
:1005D00087008093860080911201882321F080E4B7
:1005E00080937C0002C010927C00389840988091E3
:1005F0007E00816080937E0087E080937B008CEE9C
:1006000080937A008AB1886F8AB9219A229A0895D4
:100610000F931F93CF93DF93CDB7DEB72E970FB60F
:10062000F894DEBF0FBECDBF8C018AECD8011D92BD
:100630008A95E9F710932D0800932C0880E490E048
:10064000F801968F858FC80180599F4FE859FF4F59
:100650009183808397838683958384830496938391
:1006600082830996D801AB58BF4F11969C938E9305
:1006700017969C938E93169715969C938E9314972A
:10068000CF9613969C938E93129785599109D80112
:1006900090969C938E935F9796969C938E93959746
:1006A00094969C938E939397CF9692969C938E93C9
:1006B000919784E090E0A681B7811C924681578192
:1006C000228133814217530719F42081318104C0FC
:1006D000268137812F5F3F4F37832683019759F754
:1006E0000E94DE028EE0FE013196DF01982F1D92FE
:1006F0009A95E9F793E09C8327E132E03A872987CE
:100700002BEA32E03C872B87D80101900D928A9525
:10071000E1F72E960FB6F894DEBF0FBECDBFDF9186
:10072000CF911F910F9108950F931F93CF93DF9354
:10073000E0912C08F0912D0825A136A134A323A324
:10074000EC018C01060F171FC017D10721F089910A
:100750000E941702F9CFDF91CF911F910F91089559
:10076000DC0156968C9156978111ECC058968C916D
:1007700058978111A2C093964D915C91949795964C
:100780002D913C9196974217530739F454962D9129
:100790003C915597232B09F460C059969C91599729
:1007A000911103C05A961C925A9791E059969C93C6
:1007B000599752962D913C9153972115310599F5F2
:1007C00093964D915C91949795962D913C91969727
:1007D0004217530759F454962D913C915597215047
:1007E000310955963C932E93549723C09396ED91DF
:1007F000FC91949791962D913C919297E217F30773
:1008000029F45F962D913C91909707C09396ED91B6
:10081000FC9194979F012F5F3F4F94963C932E93AA
:100820009397908107C02150310953963C932E93A2
:1008300052979EE757969C93579757969C91579738
:100840009B3189F593964D915C91949795962D9156
:100850003C9196974217530739F410921301A95906
:10086000BF4F1C92299808959396ED91FC9194970F
:1008700091968D919C919297E817F90729F45F96CC
:100880008D919C91909706C09396ED91FC919497D1
:10089000CF01019694969C938E939397808157965F
:1008A0008C93579706C09E57923018F459961C9215
:1008B000599781E058968C93589759968C915997EF
:1008C0005D962D913C915E978823A9F05A968C9164
:1008D0005A97853080F05A961C925A9720343105E9
:1008E00019F080E490E002C085E790E05E969C936A
:1008F0008E935D9723C058968C91589757969C91EC
:100900005797982341F05A969C915A979F5F5A9611
:100910009C935A970FC05A961C925A9720343105CF
:1009200019F020E430E002C025E730E05E963C9309
:100930002E935D97880F58968C93589788E056961B
:100940008C9356975D96ED91FC915E975B968D9199
:100950009C915C97E80FF91F9F0131705C963C9366
:100960002E935B9756968C915697815056968C9302
:10097000FF27E038F10530F08FEF90E0AC014E1B1F
:100980005F0BFA01E859FF4F84912F3F310511F0B9
:1009900008F080950895EF92FF920F931F93CF93E5
:1009A000DF93FC018C0101541F4FD8014D915C91E4
:1009B0001197129711965C934E93A555B109149611
:1009C0008D919C91159712962D913C9113978217BA
:1009D000930721F42D913C91119707C014968D91A6
:1009E0009C9115979C012F5F3F4F15963C932E933A
:1009F0001497EC012881260290011124C9019595D4
:100A0000879595958795E801998388837F01D3EC35
:100A1000ED0EF11CE701288139818F010F531F4F23
:100A2000E80139832883840F951F35952795820F18
:100A3000931FE70199838883AF014B535F4F21E0F8
:100A4000181619060CF420E0EA018881880F822B21
:100A5000888316968D919C911797EC016883169662
:100A60002D913C91179712968D919C911397281771
:100A7000390721F48D919C91119705C016968D919F
:100A80009C911797019617969C938E931697DA016F
:100A90009C91892F8695869589278370DF01AA53BB
:100AA000BF4F833039F48C91803214F48F5F01C0D2
:100AB00081508C938C91885F803414F48C9346C160
:100AC0008F738C93DF01A953BF4F8C91880F977060
:100AD0002BEF290F233010F0933009F481608C93B1
:100AE0008C91982F96958927809581709685990F7E
:100AF000892B86878E3709F048C0DF01AB58BF4F7E
:100B000014962D913C9115978D919C9111972817D2
:100B1000390761F416962D913C91179712968D9195
:100B20009C9113972817390709F4DCC016962D916C
:100B30003C91179714968D919C91159701972817C2
:100B4000390709F4CFC01696CD91DC9117978EE73F
:100B5000888316962D913C91179712968D919C91B2
:100B600013972817390721F48D919C91119705C08F
:100B700016968D919C911797019617969C938E933C
:100B8000169781E0818B2A9AB0C0982F9F779F3764
:100B900019F4118A2A98DAC09189992309F4D6C0E8
:100BA000982F9F739E3309F4D1C080FF03C08089C2
:100BB0008068808B97859F5F97878089983008F43D
:100BC00099C0DF01AB58BF4F92E8980F923018F0F0
:100BD0008B3109F044C014962D913C9115978D915D
:100BE0009C9111972817390759F416962D913C912D
:100BF000179712968D919C9113972817390759F1E1
:100C000016962D913C91179714968D919C9115975E
:100C1000019728173907F9F01696CD91DC911797AF
:100C20008BE1888316962D913C91179712968D91A2
:100C30009C9113972817390721F48D919C91119756
:100C400005C016968D919C911797019617969C93C7
:100C50008E93169704C0118A2A9880E001C081E023
:100C600014964D915C9115972D913C9111974217D7
:100C7000530759F416964D915C91179712962D9142
:100C80003C9113974217530769F116964D915C9169
:100C9000179714962D913C911597215031094217C1
:100CA000530701F190891696CD91DC91179798839F
:100CB00016964D915C91179712962D913C91139732
:100CC0004217530721F42D913C91119706C01696B7
:100CD0002D913C9117972F5F3F4F17963C932E9382
:100CE000169703C0118A2A9880E0108A17868823F5
:100CF00021F02CC08695808B29C0DF01A853BF4FFF
:100D00008D919C911197816011969C938E93EB58D5
:100D1000FF4F24813581808191812817390739F46B
:100D200026813781828193812817390741F02681F6
:100D300037818481958101972817390739F4868195
:100D400097819583848311961C921E92DF91CF9197
:100D50001F910F91FF90EF9008951F920F920FB681
:100D60000F9211242F933F934F935F936F937F9331
:100D70008F939F93AF93BF93EF93FF9380E286BBD4
:100D80006091780070917900769567957695679572
:100D9000605880912C0890912D080E94CB0480917E
:100DA0001301882341F080912C0890912D080E9416
:100DB000B003807F01C088E88BB98091F6049091E0
:100DC000F704A091F804B091F9040196A11DB11D9A
:100DD0008093F6049093F704A093F804B093F90479
:100DE000FF91EF91BF91AF919F918F917F916F9103
:100DF0005F914F913F912F910F900FBE0F901F90D9
:100E00001895CF92DF92EF92FF920F931F93CF939B
:100E1000DF931F92CDB7DEB77C01262F82E8860FC5
:100E20008701085E1C4F823010F06B3149F4F801E5
:100E3000608171818BE190E029830E94BA0A298147
:100E4000D701A25EBC4F3C9111964C911197822F15
:100E500090E0FC01E327EE0FFF1FE851FF4F2591C3
:100E60003491C42ED12C2C253D252D933C93F80193
:100E7000608171810F90DF91CF911F910F91FF9051
:100E8000EF90DF90CF900C94BA0A24E233E0DC01BB
:100E9000F9011D923197E9F7FC01E85EFC4F71837F
:100EA000608338965183408332972FEF3FEF318331
:100EB000208332973183208308953F924F925F922F
:100EC0006F927F928F929F92AF92BF92CF92DF925A
:100ED000EF92FF920F931F93CF93DF932C013C016E
:100EE00028EE621A2CEF720A6C014DEDC41A4CEF19
:100EF000D40AEC01CE5DDC4F8C01065E1C4F7C01F8
:100F000084EEE81A8CEFF80A33243394AA24AA94C6
:100F1000BA2C4201A0EE8A1AACEF9A0AF301808142
:100F200091810E947C0A8F3FFFEF9F0709F458C010
:100F3000F6012081211128C08E379105D1F4D80106
:100F40008D919C91429768F0F70180819181883B57
:100F5000904F39F4D401ED91FC91309711F0C2011A
:100F600009953882F701B182A082D8011D921C92A6
:100F7000D5CF8F37910511F41882D0CF8B319105E1
:100F800019F4F6013082CACF2881222331F1D80129
:100F90002D913C912831B3E03B07F0F4A9014F5F5C
:100FA0005F4FF80151834083F201E20FF31F80830A
:100FB000D7012D913C91F901E827FF27EE0FFF1F84
:100FC000E851FF4F85919491232F33278227932750
:100FD000F7019183808301C01882D6011C929ECFB5
:100FE000DF91CF911F910F91FF90EF90DF90CF9005
:100FF000BF90AF909F908F907F906F905F904F9039
:101000003F9008958F929F92AF92BF92CF92DF92BE
:10101000EF92FF920F931F93CF93DF938C014B01BD
:101020005A016C0182EEC81A8CEFD80A8FEF9FEF3D
:10103000F601918380837801F8EEEF1AFCEFFF0A46
:10104000F701608171818EE790E00E94BA0AE401A5
:10105000A80CB91CCA15DB0529F06991C8010E94CA
:101060000107F8CFF6016081C1816095C8010E9437
:1010700001076C2F6095C8010E940107F70160818C
:1010800071818EE790E0DF91CF911F910F91FF90DA
:10109000EF90DF90CF90BF90AF909F908F900C9487
:1010A000BA0A9093300880932F085093FB04409322
:1010B000FA0470933208609331080895EF92FF921A
:1010C0000F931F93CF93DF93EC016091FA0470911B
:1010D000FB0480EC90E00E94BA0A6091FA047091DF
:1010E000FB0480E090E00E94BA0A8E017E0186EE49
:1010F000E81A8CEFF80AF70120813181225031097A
:101100006091FA047091FB04C8018C1B9D0B82173F
:10111000930708F5F80181918F01803C59F48BED1C
:1011200090E00E94BA0A6091FA047091FB048CED81
:1011300090E00EC08B3D59F48BED90E00E94BA0A0E
:101140006091FA047091FB048DED90E001C090E095
:101150000E94BA0AD0CF80EC90E0DF91CF911F912E
:101160000F91FF90EF900C94BA0A4F925F926F929A
:101170007F928F929F92AF92BF92EF92FF920F93C6
:101180001F93CF93DF93EC018B017A01E09131083B
:10119000F09132088189811145C00E946C0A9091BA
:1011A0000001891798F4A701B801CE01DF91CF9112
:1011B0001F910F91FF90EF90BF90AF909F908F90F5
:1011C0007F906F905F904F900C9402088FB7F894C7
:1011D0008090F6049090F704A090F804B090F90481
:1011E0008FBF209101013091020140910301509184
:1011F0000401AAE0B0E00E94150A2FB7F8944090CD
:10120000F6045090F7046090F8047090F9042FBF32
:10121000481859086A087B08461657066806790672
:1012200064F3B4CFE0913108F091320881898823CA
:1012300009F4ACCF80912F08909130080E945D078F
:10124000E0913108F0913208E853FF4F808191819D
:10125000892B41F311821082DF91CF911F910F9161
:10126000FF90EF90BF90AF909F908F907F906F9086
:101270005F904F900895909133089923A1F0803C9E
:1012800001F580910D01811111C010923308409138
:1012900034085091350864E171E080912F089091F5
:1012A00030080C94B508803C09F07BC081E0809345
:1012B00033088EEF80930D01109235081092340898
:1012C00008952091340830913508283193E039078A
:1012D00008F067C090910D012115310531F49E3F52
:1012E00021F48F7080930D01089591111FC08B3DE3
:1012F00021F481E080932E08089590912E0899237F
:1013000049F08C3D21F08D3D19F48BED01C080EC4E
:1013100010922E08A9014F5F5F4F509335084093FC
:101320003408F901EC5EFE4F80830895913079F422
:10133000282F30E0AAE0B0E00E94060A609309017D
:1013400070930A0180930B0190930C0108959430DF
:1013500089F42AE0829FC0011124092E000CAA0BF7
:10136000BB0B8093050190930601A0930701B093F6
:1013700008010895933089F42AE0829FC001112466
:10138000092E000CAA0BBB0B809301019093020164
:10139000A0930301B09304010895923011F4809357
:1013A000000108950E949501399A419A88E095E0DC
:1013B0000E945D0780E00E9404028823B9F30E9426
:1013C0000E020E943B09F2CFA1E21A2EAA1BBB1B00
:1013D000FD010DC0AA1FBB1FEE1FFF1FA217B30701
:1013E000E407F50720F0A21BB30BE40BF50B661F17
:1013F000771F881F991F1A9469F7609570958095DB
:1014000090959B01AC01BD01CF010895A29FB00151
:10141000B39FC001A39F700D811D1124911DB29F28
:10142000700D811D1124911D08950E94060AA59F2B
:10143000900DB49F900DA49F800D911D11240895CF
:101440008F929F92AF92BF92CF92DF92EF92FF92D4
:10145000CF93DF93EC01688179818A819B8161154B
:1014600071058105910521F464E279ED8BE597E042
:101470002DE133EF41E050E00E94F20A49015A01A8
:101480009B01AC01A7EAB1E40E94150A6B017C0143
:10149000ACEEB4EFA50194010E94140BDC01CB016A
:1014A0008C0D9D1DAE1DBF1DB7FF03C00197A10987
:1014B000B04888839983AA83BB839F77DF91CF91BC
:1014C000FF90EF90DF90CF90BF90AF909F908F9064
:1014D00008950E94200A08958EE091E00E94200A5B
:1014E0000895A0E0B0E080930E0190930F01A093C7
:1014F0001001B09311010895CF93DF93EC012B817C
:1015000020FF33C026FF0AC02F7B2B838E819F8153
:1015100001969F838E838A8190E029C022FF0FC0AD
:10152000E881F9818081082E000C990B009719F44D
:1015300020622B831AC03196F983E8830EC0EA85B6
:10154000FB85099597FF09C02B81019611F080E278
:1015500001C080E1822B8B8308C02E813F812F5FE9
:101560003F4F3F832E83992702C08FEF9FEFDF917C
:10157000CF9108950F931F93CF93DF93FB012381A6
:1015800021FD03C08FEF9FEF28C022FF16C04681C8
:101590005781248135814217530744F4A081B181DA
:1015A0009D012F5F3F4F318320838C9326813781AC
:1015B0002F5F3F4F3783268310C0EB01092F182F71
:1015C0000084F185E02D0995892BE1F68E819F81BC
:1015D00001969F838E83812F902FDF91CF911F9152
:1015E0000F910895052E97FB1EF400940E94090B9D
:1015F00057FD07D00E94E40907FC03D04EF40C9479
:10160000090B50954095309521953F4F4F4F5F4FB7
:10161000089590958095709561957F4F8F4F9F4F5E
:101620000895B7FF0C94150A0E94150A821B930BAC
:061630000895F894FFCFBD
:101636003FC800000032000000DC050000FE01008B
:021646000000A2
:00000001FF
