:100000000C94B7010C94D4010C94D4010C94D40139
:100010000C94D4010C94D4010C94D4010C94D4010C
:100020000C94D4010C94D4010C94D4010C94D401FC
:100030000C94D4010C94D4010C94150A0C94D401A2
:100040000C94D4010C94D4010C94D4010C94D401DC
:100050000C94D4010C94F0060C94D4010C94D401AB
:100060000C94D4010C94D4016164617074656420B3
:10007000666F722041746D656C2041565220616E2E
:100080006420746869732064656D6F206279204D07
:10009000617274696E2054686F6D61730D0A006738
:1000A000656E6572696320736F6674756172742022
:1000B00064726976657220636F646520627920439B
:1000C0006F6C696E2047697474696E730D0A000D58
:1000D0000A536F6674756172742044656D6F2D41AB
:1000E00070706C69636174696F6E0D0A0080818342
:1000F000848687898A8C8E8F9192949597989A9B03
:100100009D9EA0A2A3A5A6A7A9AAACADAFB0B2B36D
:10011000B5B6B7B9BABCBDBEC0C1C2C4C5C6C8C9F0
:10012000CACBCDCECFD0D2D3D4D5D6D7D9DADBDC9B
:10013000DDDEDFE0E1E2E3E4E5E6E7E8E9EAEAEB79
:10014000ECEDEEEEEFF0F1F1F2F3F3F4F5F5F6F697
:10015000F7F8F8F9F9FAFAFAFBFBFCFCFCFDFDFDF7
:10016000FDFEFEFEFEFEFFFFFFFFFFFFFF0000891A
:100170001112239B322446AD573665BF74488CC19B
:100180009D5AAFD3BE6CCAE5DB7EE9F7F881100853
:100190000193331A22A5562C47B7753E64C99C407B
:1001A0008DDBBF52AEEDDA64CBFFF976E802218B2E
:1001B00030100299132667AF763444BD554AADC35B
:1001C000BC588ED19F6EEBE7FA7CC8F5D983310A13
:1001D0002091121803A7772E66B5543C45CBBD423B
:1001E000ACD99E508FEFFB66EAFDD874C904428DEE
:1001F0005316619F702004A9153227BB364CCEC51B
:10020000DF5EEDD7FC6888E1997AABF3BA85520CD2
:100210004397711E60A1142805B3373A26CDDE44FA
:10022000CFDFFD56ECE9986089FBBB72AA06638FAD
:100230007214409D512225AB343006B9174EEFC7DA
:10024000FE5CCCD5DD6AA9E3B8788AF19B87730E92
:100250006295501C41A3352A24B1163807CFFF46BA
:10026000EEDDDC54CDEBB962A8F99A708B0884817D
:10027000951AA793B62CC2A5D33EE1B7F04008C9A2
:1002800019522BDB3A644EED5F766DFF7C8994004A
:10029000859BB712A6ADD224C3BFF136E0C1184882
:1002A00009D33B5A2AE55E6C4FF77D7E6C0AA58325
:1002B000B4188691972EE3A7F23CC0B5D14229CB62
:1002C00038500AD91B666FEF7E744CFD5D8BB5020A
:1002D000A499961087AFF326E2BDD034C1C3394A42
:1002E00028D11A580BE77F6E6EF55C7C4D0CC685E5
:1002F000D71EE597F42880A1913AA3B3B2444ACD22
:100300005B5669DF78600CE91D722FFB3E8DD604C9
:10031000C79FF516E4A9902081BBB332A2C55A4C01
:100320004BD7795E68E11C680DF33F7A2E0EE787A4
:10033000F61CC495D52AA1A3B03882B193466BCFE1
:100340007A5448DD59622DEB3C700EF91F8FF70689
:10035000E69DD414C5ABB122A0B9923083C77B4EC1
:100360006AD5585C49E33D6A2CF11E780F001124D0
:100370001FBECFEFD8E0DEBFCDBF11E0A0E0B1E0FF
:10038000E6EFF8E102C005900D92A831B107D9F768
:1003900028E0A8E1B1E001C01D92A037B207E1F763
:1003A0000E941D0B0C94790C0C9400000C94A10875
:1003B000789480E694E00E944B0346ED51E060E6BD
:1003C00074E08CE395E00E9488078EE295E00E943D
:1003D0000602EAE6F8E08EE295E093838283918359
:1003E0008083AC0160E674E08CE395E00C949408A3
:1003F0009091C00095FFFCCF8093C6000895809136
:10040000C00087FFFCCF8091C6000895CF93DF9393
:10041000CDB7DEB72E970FB6F894DEBF0FBECDBFB7
:10042000DC018EE0FD01982F11929A95E9F7109268
:10043000C50093E39093C400E0ECF0E090819D7FD1
:10044000908396E09093C20098E19093C1009E0142
:100450002F5F3F4FF90111928A95E9F783E08C8372
:1004600088EF91E09A8789878FEF91E09C878B874F
:100470009EE0F90101900D929A95E1F72E960FB644
:10048000F894DEBF0FBECDBFDF91CF9108958111EB
:1004900006C08091C000881F8827881F089580E0CB
:1004A00008958091C00087FF03C08091C600089521
:1004B0008FEF08950F931F93CF93DF93182FC09161
:1004C0006008D0916108FE01E959FF4F80818111D8
:1004D00024C080E490E09E8F8D8F1C8E1B8E1A8E20
:1004E00001E00083299A2091090130910A0140918D
:1004F0000B0150910C01A0EBB4E00E94750B60560B
:10050000704F8F4F9F4F20E43FE140E050E00E944A
:10051000440B3B8B2A8B009319010FB7F894209161
:100520000501309106014091070150910801A0EBAF
:10053000B4E00E94750B6056704F8F4F9F4F20E4C0
:100540003FE140E050E00E94440B3D8B2C8B0FBFFD
:10055000E0916008F09161084FB7F89423A134A1AD
:10056000878D90A12817390739F425A136A181A1DB
:1005700092A12817390779F065A176A123A134A1AA
:100580002150310991E080E06217730709F090E093
:10059000292F382F02C021E030E04FBF232BC1F6B6
:1005A000E0916008F09161082FB7F894A5A1B6A179
:1005B0001C9345A156A181A192A14817590719F48E
:1005C000878D90A103C085A196A1019696A385A3CE
:1005D0002FBFDF91CF911F910F910895E091600897
:1005E000F09161084FB7F894EB58FF4F24813581A3
:1005F000868197814FBF28173907E9F0E09160089D
:10060000F09161089FB7F894EB58FF4FA481B58132
:1006100022813381A217B30719F42081318105C0EB
:10062000A481B5819D012F5F3F4F358324838C9139
:100630009FBF90E008958FEF9FEF089510921801EB
:100640000895109218011092800089E18093810032
:1006500080E493E090938700809386008091180156
:10066000882321F080E480937C0002C010927C00FB
:100670003898409880917E00816080937E0087E06A
:1006800080937B008CEE80937A008AB1886F8AB960
:10069000219A229A08950F931F93CF93DF93CDB79A
:1006A000DEB72E970FB6F894DEBF0FBECDBF8C011C
:1006B0008AECD8011D928A95E9F71093610800939E
:1006C000600880E490E0F801968F858FC80180591A
:1006D0009F4FE859FF4F918380839783868395834B
:1006E00084830496938382830996D801AB58BF4FC5
:1006F00011969C938E9317969C938E9316971596AE
:100700009C938E931497CF9613969C938E931297E7
:1007100085599109D80190969C938E935F979696F0
:100720009C938E93959794969C938E939397CF9644
:1007300092969C938E93919784E090E0A681B781E6
:100740001C9246815781228133814217530719F445
:100750002081318104C0268137812F5F3F4F37834D
:100760002683019759F70E9421038EE0FE013196FE
:10077000DF01982F1D929A95E9F793E09C832AE573
:1007800032E03A8729872EEE32E03C872B87D8016A
:1007900001900D928A95E1F72E960FB6F894DEBF80
:1007A0000FBECDBFDF91CF911F910F9108950F9391
:1007B0001F93CF93DF93E0916008F091610825A12A
:1007C00036A134A323A3EC018C01060F171FC01719
:1007D000D10721F089910E945A02F9CFDF91CF9180
:1007E0001F910F910895DC0156968C9156978111B7
:1007F000ECC058968C9158978111A2C093964D9158
:100800005C91949795962D913C919697421753073A
:1008100039F454962D913C915597232B09F460C0DF
:1008200059969C915997911103C05A961C925A97C8
:1008300091E059969C93599752962D913C915397DC
:100840002115310599F593964D915C919497959664
:100850002D913C9196974217530759F454962D9138
:100860003C9155972150310955963C932E935497BE
:1008700023C09396ED91FC91949791962D913C9184
:100880009297E217F30729F45F962D913C91909788
:1008900007C09396ED91FC9194979F012F5F3F4F76
:1008A00094963C932E939397908107C021503109E1
:1008B00053963C932E9352979EE757969C93579747
:1008C00057969C9157979B3189F593964D915C91E2
:1008D000949795962D913C9196974217530739F42A
:1008E00010921901A959BF4F1C9229980895939607
:1008F000ED91FC91949791968D919C919297E81728
:10090000F90729F45F968D919C91909706C0939674
:10091000ED91FC919497CF01019694969C938E93C0
:100920009397808157968C93579706C09E57923025
:1009300018F459961C92599781E058968C935897C1
:1009400059968C9159975D962D913C915E9788238D
:10095000A9F05A968C915A97853080F05A961C923D
:100960005A972034310519F080E490E002C085E701
:1009700090E05E969C938E935D9723C058968C91E1
:10098000589757969C915797982341F05A969C9167
:100990005A979F5F5A969C935A970FC05A961C92EB
:1009A0005A972034310519F020E430E002C025E7E1
:1009B00030E05E963C932E935D97880F58968C930B
:1009C000589788E056968C9356975D96ED91FC91DA
:1009D0005E975B968D919C915C97E80FF91F9F0144
:1009E00031705C963C932E935B9756968C915697FC
:1009F000815056968C93FF27E038F10530F08FEF49
:100A000090E0AC014E1B5F0BFA01E351FF4F849164
:100A10002F3F310511F008F080950895EF92FF9275
:100A20000F931F93CF93DF93FC018C0101541F4F51
:100A3000D8014D915C911197129711965C934E934A
:100A4000A555B10914968D919C91159712962D91EB
:100A50003C9113978217930721F42D913C911197A4
:100A600007C014968D919C9115979C012F5F3F4F65
:100A700015963C932E931497EC0128812602900141
:100A80001124C9019595879595958795E8019983D6
:100A900088837F01D3ECED0EF11CE70128813981B9
:100AA0008F010F531F4FE80139832883840F951F4F
:100AB00035952795820F931FE70199838883AF01AE
:100AC0004B535F4F21E0181619060CF420E0EA01A1
:100AD0008881880F822B888316968D919C91179719
:100AE000EC01688316962D913C91179712968D9183
:100AF0009C9113972817390721F48D919C91119798
:100B000005C016968D919C911797019617969C9308
:100B10008E931697DA019C91892F86958695892761
:100B20008370DF01AA53BF4F833039F48C91803238
:100B300014F48F5F01C081508C938C91885F803456
:100B400014F48C9346C18F738C93DF01A953BF4F6C
:100B50008C91880F97702BEF290F233010F0933072
:100B600009F481608C938C91982F969589278095B4
:100B700081709685990F892B86878E3709F048C03A
:100B8000DF01AB58BF4F14962D913C9115978D9175
:100B90009C9111972817390761F416962D913C9175
:100BA000179712968D919C9113972817390709F47E
:100BB000DCC016962D913C91179714968D919C91BF
:100BC000159701972817390709F4CFC01696CD91CC
:100BD000DC9117978EE7888316962D913C91179795
:100BE00012968D919C9113972817390721F48D91B6
:100BF0009C91119705C016968D919C91179701961F
:100C000017969C938E93169781E0818B2A9AB0C099
:100C1000982F9F779F3719F4118A2A98DAC0918903
:100C2000992309F4D6C0982F9F739E3309F4D1C03D
:100C300080FF03C080898068808B97859F5F97873E
:100C40008089983008F499C0DF01AB58BF4F92E813
:100C5000980F923018F08B3109F044C014962D9102
:100C60003C9115978D919C9111972817390759F44C
:100C700016962D913C91179712968D919C911397F2
:100C80002817390759F116962D913C91179714960C
:100C90008D919C911597019728173907F9F01696B1
:100CA000CD91DC9117978BE1888316962D913C911D
:100CB000179712968D919C9113972817390721F455
:100CC0008D919C91119705C016968D919C911797C7
:100CD000019617969C938E93169704C0118A2A98B2
:100CE00080E001C081E014964D915C9115972D91A3
:100CF0003C9111974217530759F416964D915C9108
:100D0000179712962D913C9113974217530769F14B
:100D100016964D915C91179714962D913C911597CD
:100D2000215031094217530701F190891696CD9150
:100D3000DC911797988316964D915C9117971296B0
:100D40002D913C9113974217530721F42D913C911B
:100D5000119706C016962D913C9117972F5F3F4F24
:100D600017963C932E93169703C0118A2A9880E019
:100D7000108A1786882321F02CC08695808B29C085
:100D8000DF01A853BF4F8D919C91119781601196FF
:100D90009C938E93EB58FF4F248135818081918104
:100DA0002817390739F426813781828193812817E2
:100DB000390741F026813781848195810197281771
:100DC000390739F4868197819583848311961C9223
:100DD0001E92DF91CF911F910F91FF90EF90089598
:100DE0001F920F920FB60F9211242F933F934F93A0
:100DF0005F936F937F938F939F93AF93BF93EF9383
:100E0000FF9380E286BB60917800709179007695BF
:100E10006795769567956058809160089091610814
:100E20000E940E0580911901882341F0809160088D
:100E3000909161080E94F303807F01C088E88BB91C
:100E400080912A0590912B05A0912C05B0912D053C
:100E50000196A11DB11D80932A0590932B05A093A7
:100E60002C05B0932D05FF91EF91BF91AF919F910C
:100E70008F917F916F915F914F913F912F910F9043
:100E80000FBE0F901F901895CF92DF92EF92FF92B6
:100E90000F931F93CF93DF931F92CDB7DEB77C01E3
:100EA000262F82E8860F8701085E1C4F823010F0E3
:100EB0006B3149F4F801608171818BE190E0298305
:100EC0000E941A0C2981D701A25EBC4F3C91119659
:100ED0004C911197822F90E0FC01E327EE0FFF1F4A
:100EE000E359FE4F25913491C42ED12C2C253D255C
:100EF0002D933C93F801608171810F90DF91CF9128
:100F00001F910F91FF90EF90DF90CF900C941A0CEF
:100F100024E233E0DC01F9011D923197E9F7FC018D
:100F2000E85EFC4F7183608338965183408332972B
:100F30002FEF3FEF31832083329731832083089551
:100F40003F924F925F926F927F928F929F92AF9259
:100F5000BF92CF92DF92EF92FF920F931F93CF93A6
:100F6000DF932C013C0128EE621A2CEF720A6C010F
:100F70004DEDC41A4CEFD40AEC01CE5DDC4F8C0170
:100F8000065E1C4F7C0184EEE81A8CEFF80A3324CD
:100F90003394AA24AA94BA2C4201A0EE8A1AACEF88
:100FA0009A0AF301808191810E94DC0B8F3FFFEF51
:100FB0009F0709F458C0F6012081211128C08E37FF
:100FC0009105D1F4D8018D919C91429768F0F70179
:100FD00080819181883B904F39F4D401ED91FC914F
:100FE000309711F0C20109953882F701B182A082D1
:100FF000D8011D921C92D5CF8F37910511F418821C
:10100000D0CF8B31910519F4F6013082CACF2881F7
:10101000222331F1D8012D913C912831B3E03B07D7
:10102000F0F4A9014F5F5F4FF80151834083F20153
:10103000E20FF31F8083D7012D913C91F901E8273E
:10104000FF27EE0FFF1FE359FE4F85919491232F49
:10105000332782279327F7019183808301C0188269
:10106000D6011C929ECFDF91CF911F910F91FF90DF
:10107000EF90DF90CF90BF90AF909F908F907F9038
:101080006F905F904F903F9008958F929F92AF9294
:10109000BF92CF92DF92EF92FF920F931F93CF9365
:1010A000DF938C014B015A016C0182EEC81A8CEF60
:1010B000D80A8FEF9FEFF601918380837801F8EED5
:1010C000EF1AFCEFFF0AF701608171818EE790E073
:1010D0000E941A0CE401A80CB91CCA15DB0529F002
:1010E0006991C8010E944407F8CFF6016081C1816F
:1010F0006095C8010E9444076C2F6095C8010E944A
:101100004407F701608171818EE790E0DF91CF9114
:101110001F910F91FF90EF90DF90CF90BF90AF9015
:101120009F908F900C941A0C90936408809363089E
:1011300050932F0540932E057093660860936508C1
:101140000895EF92FF920F931F93CF93DF93EC01DB
:1011500060912E0570912F0580EC90E00E941A0C92
:1011600060912E0570912F0580E090E00E941A0C8E
:101170008E017E0186EEE81A8CEFF80AF7012081D5
:1011800031812250310960912E0570912F05C801DF
:101190008C1B9D0B8217930708F5F80181918F0135
:1011A000803C59F48BED90E00E941A0C60912E0562
:1011B00070912F058CED90E00EC08B3D59F48BEDB6
:1011C00090E00E941A0C60912E0570912F058DED14
:1011D00090E001C090E00E941A0CD0CF80EC90E02B
:1011E000DF91CF911F910F91FF90EF900C941A0C0B
:1011F0004F925F926F927F928F929F92AF92BF9227
:10120000EF92FF920F931F93CF93DF93EC018B012B
:101210007A01E0916508F09166088189811145C0E5
:101220000E94CC0B90910001891798F4A701B80196
:10123000CE01DF91CF911F910F91FF90EF90BF9062
:10124000AF909F908F907F906F905F904F900C9495
:1012500045088FB7F89480902A0590902B05A090B0
:101260002C05B0902D058FBF209101013091020116
:101270004091030150910401AAE0B0E00E94750B77
:101280002FB7F89440902A0550902B0560902C05BC
:1012900070902D052FBF481859086A087B0846161C
:1012A00057066806790664F3B4CFE0916508F091BB
:1012B00066088189882309F4ACCF809163089091F6
:1012C00064080E94A007E0916508F0916608E85361
:1012D000FF4F80819181892B41F311821082DF9130
:1012E000CF911F910F91FF90EF90BF90AF909F9083
:1012F0008F907F906F905F904F90089590916708C6
:101300009923A1F0803C01F580910D01811111C05C
:101310001092670840916808509169086AE171E08D
:1013200080916308909164080C94F808803C09F05F
:101330007BC081E0809367088EEF80930D0110924F
:10134000690810926808089520916808309169082A
:10135000283193E0390708F067C090910D012115FD
:10136000310531F49E3F21F48F7080930D01089573
:1013700091111FC08B3D21F481E080936208089594
:1013800090916208992349F08C3D21F08D3D19F42C
:101390008BED01C080EC10926208A9014F5F5F4F96
:1013A0005093690840936808F901E65EFE4F808318
:1013B0000895913079F4282F30E0AAE0B0E00E943F
:1013C000660B6093090170930A0180930B0190935F
:1013D0000C010895943089F42AE0829FC001112401
:1013E000092E000CAA0BBB0B8093050190930601FC
:1013F000A0930701B09308010895933089F42AE07F
:10140000829FC0011124092E000CAA0BBB0B8093F4
:10141000010190930201A0930301B0930401089588
:10142000923011F48093000108951F920F920FB62D
:101430000F9211248F939F93EF93FF9380913B041E
:10144000813019F580913A048150E9F48091370494
:101450009091380480FF02C0449A01C04498809162
:10146000370490913804969587959093380480932B
:10147000370480913904815080933904811102C06E
:1014800010923B0483E080933A0480913D048111E3
:1014900052C0809136048823E9F080913504815050
:1014A00080933504811147C01092360410923C0499
:1014B000E0913F04F0E080913404E05CFB4F8083D6
:1014C00080913F048F5F80933F048032A0F110929F
:1014D0003F0431C080913C04811110C033992BC06E
:1014E00081E080933C041092340494E0909335049E
:1014F00098E090933304809332041DC080913504AA
:101500008150B9F480913204339B05C0909134042A
:10151000982B90933404880F809332048091330485
:10152000815080933304811103C081E0809336049D
:1015300083E080933504FF91EF919F918F910F90FD
:101540000FBE0F901F90189510923B0410923C0410
:1015500010923D04449A3C9A3B989FB7F89481E2DC
:1015600087BD82E084BD85BDEEE6F0E080818260CB
:10157000808316BC9FBF089510923D04089581E0BA
:1015800080933D04089590913E0480913F04981704
:10159000E1F3E92FF0E0E05CFB4F80819F5F903248
:1015A00018F490933E04089510923E0408952091FB
:1015B0003F0481E090913E04291301C080E008952A
:1015C00010923F0410923E04089590913B0481E0F4
:1015D000913009F080E0089590913B049130E1F35F
:1015E00093E090933A049AE09093390490E0880F46
:1015F000991F9260909338048093370481E0809320
:101600003B040895CF93DF93EC018991882319F06F
:101610000E94EC0AFACFDF91CF910895CF93DF9328
:10162000FC018491EF012196882321F00E94EC0AAD
:10163000FE01F7CFDF91CF9108950E94A40A0E9486
:10164000BC0A78948FEC90E00E940E0B8FE990E03A
:101650000E940E0B88E690E00E940E0B82E191E062
:101660000E94020B0E94D801399A419A8CE395E0BE
:101670000E94A00780E00E9447028823B9F30E94DD
:1016800051020E947E09F2CFA1E21A2EAA1BBB1BB7
:10169000FD010DC0AA1FBB1FEE1FFF1FA217B3073E
:1016A000E407F50720F0A21BB30BE40BF50B661F54
:1016B000771F881F991F1A9469F760957095809518
:1016C00090959B01AC01BD01CF010895A29FB0018F
:1016D000B39FC001A39F700D811D1124911DB29F66
:1016E000700D811D1124911D08950E94660BA59F08
:1016F000900DB49F900DA49F800D911D112408950D
:101700008F929F92AF92BF92CF92DF92EF92FF9211
:10171000CF93DF93EC01688179818A819B81611588
:1017200071058105910521F464E279ED8BE597E07F
:101730002DE133EF41E050E00E94520C49015A0183
:101740009B01AC01A7EAB1E40E94750B6B017C011F
:10175000ACEEB4EFA50194010E94740CDC01CB0146
:101760008C0D9D1DAE1DBF1DB7FF03C00197A109C4
:10177000B04888839983AA83BB839F77DF91CF91F9
:10178000FF90EF90DF90CF90BF90AF909F908F90A1
:1017900008950E94800B08958EE091E00E94800BD6
:1017A0000895A0E0B0E080930E0190930F01A09304
:1017B0001001B09311010895CF93DF93EC012B81B9
:1017C00020FF33C026FF0AC02F7B2B838E819F8191
:1017D00001969F838E838A8190E029C022FF0FC0EB
:1017E000E881F9818081082E000C990B009719F48B
:1017F00020622B831AC03196F983E8830EC0EA85F4
:10180000FB85099597FF09C02B81019611F080E2B5
:1018100001C080E1822B8B8308C02E813F812F5F26
:101820003F4F3F832E83992702C08FEF9FEFDF91B9
:10183000CF9108950F931F93CF93DF93FB012381E3
:1018400021FD03C08FEF9FEF28C022FF16C0468105
:101850005781248135814217530744F4A081B18117
:101860009D012F5F3F4F318320838C9326813781E9
:101870002F5F3F4F3783268310C0EB01092F182FAE
:101880000084F185E02D0995892BE1F68E819F81F9
:1018900001969F838E83812F902FDF91CF911F918F
:1018A0000F910895052E97FB1EF400940E94690C79
:1018B00057FD07D00E94440B07FC03D04EF40C9454
:1018C000690C50954095309521953F4F4F4F5F4F94
:1018D000089590958095709561957F4F8F4F9F4F9C
:1018E0000895B7FF0C94750B0E94750B821B930B28
:0618F0000895F894FFCFFB
:1018F6003FC800000032000000DC050000FE0100C9
:0819060000002D2D0D0A000068
:00000001FF
